:020000040800F2
:10000000A006002035020008C5190008C119000823
:10001000C3190008B5130008411A000800000000C9
:10002000000000000000000000000000EF190008C0
:10003000B713000800000000ED190008F1190008CE
:100040004F0200084F0200084F0200084F0200084C
:100050004F0200084F0200084F0200084F0200083C
:100060004F0200084F0200084F0200084F0200082C
:100070004F0200084F0200084F0200084F0200081C
:100080004F0200084F0200084F0200084F0200080C
:100090004F0200084F0200084F0200084F020008FC
:1000A0004F0200084F0200084F0200084F020008EC
:1000B0004F0200084F0200084F0200084F020008DC
:1000C0004F0200084F0200084F0200084F020008CC
:1000D0004F0200084F0200084F0200084F020008BC
:1000E0004F0200084F0200084F02000800F002F81B
:1000F00000F090F80AA090E8000C82448344AAF132
:100100000107DA4501D100F085F8AFF2090EBAE82F
:100110000F0013F0010F18BFFB1A43F0010318473B
:100120003829000058290000103A24BF78C878C147
:10013000FAD8520724BF30C830C144BF04680C60ED
:10014000704700000023002400250026103A28BF35
:1001500078C1FBD8520728BF30C148BF0B60704739
:100160006E2900F06181702900F0A382662902F0F7
:10017000E983652902F0E683672902F0E3836129B8
:1001800002F0E28303681B0A28BF41F0800169295D
:1001900000F00E81642900F00B81752900F00881C0
:1001A0006F2900F03182782900F06F82E92900F090
:1001B000CB81E42900F0C881F52900F0C581EF2941
:1001C00000F02E82F82900F06E820368DB0928BF58
:1001D00041F08001632900F07587732900F07A8768
:1001E000E32900F08587F32900F08A870020704713
:1001F0001FB500F0DBFF04000020002102F08CFBA3
:10020000401C60600020002102F070FBE0601FBD18
:1002100010B510BD00F09DFF1146FFF7E9FF01F09A
:10022000E1FE01F079F803B4FFF7F2FF03BC00F040
:100230000FFB00000948804709480047FEE7FEE73A
:10024000FEE7FEE7FEE7FEE7FEE7FEE7FEE7FEE786
:1002500004480549054A064B70470000F519000897
:10026000ED000008A0000020A0060020A002002051
:10027000A00200201CB50C46064B7B44694600904A
:10028000204600F0EAF804460020694600F0F8F83D
:1002900020461CBD030200004FF0000200B51346CB
:1002A00094469646203922BFA0E80C50A0E80C5096
:1002B000B1F12001BFF4F7AF090728BFA0E80C5047
:1002C00048BF0CC05DF804EB890028BF40F8042B40
:1002D00008BF704748BF20F8022B11F0804F18BFAD
:1002E00000F8012B704770477047704770B504469F
:1002F00085690068C10601D5302600E02026C007C8
:1003000007D070BDD4E9012130469047206A401CD7
:1003100020626D1EF6D570BD70B504468569007803
:10032000C00707D170BDD4E9012120209047206A81
:10033000401C20626D1EF6D570BD09684A0501D5C6
:1003400040B27047C905FCD500B2704709684A053C
:1003500001D5C0B27047C905FCD580B2704770B5F1
:100360000C460546012A05D02878800600D5EA69A2
:10037000002302E0012305E05B1C934202D2E05C13
:100380000028F9D1A869E618C01AA861286A18449B
:1003900028622846FFF7AAFF04E0D5E9012114F8F6
:1003A000010B9047B442F8D32846FFF7B5FF70BD64
:1003B0002DE9F0410646002410687529314616A53E
:1003C00010D0FFF7BAFF002802DA404213A507E079
:1003D00031688A0701D512A502E0490704D511A5A5
:1003E000012401E0FFF7B2FF00210A2206F12407F1
:1003F00009E0B0FBF2FCB0FBF2F302FB1C00303072
:1004000078541846491C0028F3D123462A46304622
:10041000BDE8F04100F067BA000000002D000000C8
:100420002B0000002000000011680268006A5305DC
:1004300001D508700AE0D30501D5088006E013064F
:1004400003D5C217C1E9000200E00860012070472F
:1004500001694A1C02610878704700B58FB0CDE988
:1004600001310021059105497944CDE90310114678
:10047000684600F029F90FB000BD0000E5FFFFFF5E
:100480000A6802F8010B0A60704700002DE9FF5F5F
:1004900015468A460446DFF8AC80F8440027D8E9C0
:1004A00000103E46CDE9001010E03AF816106A46FA
:1004B00002A800F029FE411C07D02178890603D547
:1004C000E269391891420DD80744761C20788006DD
:1004D00002D5E069B84205DDAE42E6DB3AF8160027
:1004E0000028E2D1A069C01BA0612046FFF7FEFEF4
:1004F000D8E90010CDE90010002017E03AF81810F4
:100500006A4602A800F000FEB0F1FF3F81460BD022
:1005100000250DF1080B05E0D4E901211BF80500C9
:1005200090476D1C4D45F7D308F10100B04280465D
:10053000E4DB206A384420622046FFF7EDFEBDE888
:10054000FF9F0000AE2400002DE9F0418046D21D3F
:1005500022F007020025D2E90002F52915A614D0E1
:10056000011E72F1000106DA0023D0EB030063EBF9
:10057000020211A608E0D8F800108B0701D50FA6DB
:1005800002E0490701D50EA601251146002408F115
:10059000240704E000F062F930323A55641C50EA56
:1005A0000102F7D12B46324621464046BDE8F041D4
:1005B00000F099B9000000002D0000002B000000A1
:1005C0002000000030B4002100F1240408E002F013
:1005D0000705D208303542EA4372DB086554491CEE
:1005E00052EA0305F3D10468002310A2250708D5B9
:1005F00004F020040C4304D0C46901230CA2641E3F
:10060000C46130BC00F06FB910B5044621461068D3
:10061000FFF79CFE02462046BDE810400023D1E7CC
:10062000D21D22F00701D1E90023CBE70000000032
:1006300030000000F0B40D460188090502D5214CB8
:100640007C4402E01F4C7C440E34002100F124065F
:1006500008E002F00F071209E75D42EA03721B0986
:100660007754491C52EA0307F3D10278002312079A
:1006700004D5702D06D009B1022311342246F0BCF6
:1006800000F031B901231034F8E770B504460D4687
:1006900021461068FFF75AFE024629462046BDE86B
:1006A00070400023C6E7D21D22F00703D3E90023E0
:1006B000C0E70368126843F0200303600823C361A6
:1006C0000023B7E7102300002DE9F05F89460446B8
:1006D0004FF0000ADFF874B1FB44C0F820A02046B8
:1006E000E1688847002874D0252806D0D4E9012184
:1006F0009047206A401C2062F1E700265F462046B2
:10070000E16888472028054607DB312D05D2781996
:1007100010F8200C08B10643F1E7B00701D526F028
:100720000406C4F81CA00027C4F818A02A2D09D07C
:10073000284602F0D3F838B304EB8708303DC8F8F8
:10074000185019E059F8041B204604EB8702916108
:10075000E1688847012F054618D1E069002820DAB2
:1007600026F020061DE0D8F8180000EB800005EB0D
:1007700040003038C8F818002046E1688847054630
:1007800002F0ACF80028EED1012F0AD02E2D08D1AE
:100790002046E16888477F1C0546022F46F0200668
:1007A000C4DBA069002803DA404246F00106A061DC
:1007B000F00701D026F010066C2D0BD0682D09D063
:1007C0004C2D39D06A2D35D0742D35D07A2D33D0BB
:1007D00016E038E0E1682F4620468847B8420546D3
:1007E00009D16C2F26D04FF48060E1680643204683
:1007F0008847054604E06C2F1AD04FF480700643FA
:100800000DB3A5F14100192802D8203546F4006641
:100810004A462946204626604E46FFF7A1FC80B195
:1008200001280BD0F61D26F0070000F1080956E755
:100830004020E4E78020D8E70020D6E706F104094D
:100840004DE7284652E7206ABDE8F09FA02200004D
:1008500001491820ABBEFEE72600020030B5B0F11A
:100860000A0271F100034FEA900E4EEA817EB0EB6E
:100870000E0061EB91014FEA101E4EEA017E10EB73
:100880000E0041EB11114FEA102E4EEA016E10EBF3
:100890000E0041EB11214FEA104E4EEA014E10EBD3
:1008A0000E0041EB1141401841F100014FEAD00028
:1008B00040EA41704FEAD1014FEA810444EA907462
:1008C00010EB800544EB01046D1944EB0404521B4A
:1008D000A3414FF0000348BF0A3200D530BD401C91
:1008E00041F1000130BD2DE9F0470D469946924691
:1008F000044600F124080168880604D5E06921F067
:100900001001216000E00120A84201DD471B00E04A
:100910000027A1697A1902EB0900081AA061207862
:10092000C00602D42046FFF7E1FC002608E0D4E927
:1009300001211AF806009047206A401C761C2062AC
:100940004E45F4DB2078C0060AD52046FFF7CEFCE2
:1009500006E0D4E9012130209047206A401C206243
:10096000381EA7F10107F4DC07E0D4E9012118F8EB
:1009700005009047206A401C2062281EA5F1010551
:10098000F3DC2046FFF7C8FC2078000602D50220E1
:10099000BDE8F0870120FBE72DE9FF4F0C461E461E
:1009A0004FF0FF378BB0D2E90001DDF860800A908C
:1009B0008A46C1F30A5505B93D46002108464FF065
:1009C0000000BAF1000F00F4400005DA00EB8000EF
:1009D0004FF4400101EA50004FEA9059B9F1010F7C
:1009E00000DDB9460A9850EA4A000ED044F610508D
:1009F000A5F2FF3545432F14B8F1000F1ED0754204
:100A0000291E1EDDC9F100021CE0B8F1010F4FF0F4
:100A1000000001D0302103E0F24305E02154401CE6
:100A2000B042FBDB30460022002121540B99C1F873
:100A30000880C1E900200FB0BDE8F08FBD1B6D1C20
:100A4000DEE74A4600DA694206A800F0F3FB06AB8F
:100A500093E8070003AB83E8070050460A9901F0CA
:100A600061FB8DE80700A0F500501F380090039847
:100A7000002D0ADD42F21F014A460844002303A963
:100A80000390684601F0CAFD09E0A0F500504A460F
:100A90001F38002303A90390684601F0D4FD8DE8B8
:100AA00007000004000C03D04FF0FF30410800E0C5
:100AB0001046B8F1000F03D00022009215461EE048
:100AC000751E05D4FFF7CAFE303262556D1EF9D58A
:100AD000B3460122084302D000227F1C04E02078A4
:100AE000302801D100227F1E002A099784D01DE002
:100AF000112D07DAFFF7B2FE303262556D1C50EA55
:100B00000102F5D1084302D00098C8B10EE00021DF
:100B1000681E05E0235C625C63542254401E491C3D
:100B20008142F7DBAB46A81B401E0990002004F869
:100B30000B000B98099AC0F80880C0E9002B7AE7EF
:100B400011264FF0000857E72DE9F04F884604467C
:100B5000D21D22F0070191B0D1E90001CDE90A01CF
:100B600001F0A8FE02460B98C00F01D02D2007E02F
:100B70002068810701D52B2002E0202101EAC00076
:100B8000032A099001D0072A05DB03464146204687
:100B900000F010FB0BE12078800601D5E06900E051
:100BA0000620B8F1650F814606D0B8F1660F18D05F
:100BB000B8F1670F70D131E00020B9F1110F00904A
:100BC00001DB112301E009F101030AAA01A90CA824
:100BD000FFF7E2FEDDE90C70002609F1010583460E
:100BE00047E001204B4600904FF000470AAA01A9B8
:100BF0000CA8FFF7D1FEDDE90DB00C995D4600268B
:100C000010B909F101000D18B9EB050003D4C0F1CA
:100C1000FF3609F10105A5EB09002BE0B9F1010F41
:100C200001DA4FF001090020B9F1110F0090484698
:100C300001DD112300E003460AAA01A90CA8FFF771
:100C4000ABFEDDE90C704D46002683462078000798
:100C50000AD4AB4500DA5D4601A8012D04DD411937
:100C600011F8011C302907D04F4502DA17F1040FA3
:100C700004DA012082460FE06D1EEEE7002F02DC51
:100C8000ED1B3E4403E0781CA84200DD7D1CB81B30
:100C900000F1010A4FF000472078000703D4AA456D
:100CA00001DB4FF0FF3A0021B7F1004F0DF143088F
:100CB0008DF8431024D002202B23002F01DA7F422D
:100CC0002D230A21021EA0F1010000DC5FB197FB79
:100CD000F1FC97FBF1F201FB1C7C17460CF1300C88
:100CE00008F801CDEEE7A8F101000370218809059D
:100CF00001D5452100E06521A0F1010800F8011CA3
:100D000009980FA9A1EB0807FF1D00B101204119A7
:100D100001EBEA70A1693844081A401EA0612078EE
:100D2000C00602D42046FFF7E1FA099828B1D4E9B9
:100D300001219047206A401C20622078C00622D5FD
:100D40002046FFF7D3FA1EE0002E04DBB34502DD98
:100D500001A8805D00E03020D4E901219047206A9D
:100D6000401C2062761CAAF101005FEA000A0AD149
:100D700000F01CFAC0680168405CD4E9012190478A
:100D8000206A401C2062281EA5F10105DCDC07E07A
:100D9000D4E9012118F8010B9047206A401C206219
:100DA000381EA7F10107F3DC2046FFF7B5FA032050
:100DB00011B041E62DE9F04F04460D46D21D22F058
:100DC000070089B0D0E900974846394601F072FD26
:100DD0000246F80F01D02D2307E02068810701D5D6
:100DE0002B2302E0202101EAC0038DF820300BB153
:100DF000012000E00020032A824601D0072A04DBFC
:100E00002946204600F0D6F93FE12078800601D43B
:100E10000D2500E0E569C7F30A560D2D49DA0021DA
:100E20004FEA175B08464FF00000002F00F4400027
:100E300007DA00EB80004FF4400100EBD07001EACC
:100E400060008115012901DD4FF0FF3100224FEADA
:100E5000850CBCF1180F06D31346ACF118004FF007
:100E60008052C24003E04FF4801323FA0CF30CF1DC
:100E70000C0CBCF1200F04D3ACF1200C09FA0CF0DF
:100E800001E007FA0CF000294FF0004801DD18B925
:100E90000FE00ED140450CD319EB02095F4121B997
:100EA000404502D19F4329EA0209BBEB175F00D0FE
:100EB000761C2088000502D57B48784402E07A48F9
:100EC0007844193808AA302302F80A30037C0AF162
:100ED0000101002E0AF1020A53546A4602DC4FF067
:100EE000300101E04FF031014FF001088DF80010A2
:100EF00002D0A6F2FF3603E059EA470100D06B4E5C
:100F0000002D02DC2178090704D54FF002082E21BC
:100F10008DF80110C44600210BE0C7F303433F01E5
:100F2000C35C491C6D1E02F80830052908F1010850
:100F300001DA002DF1DC00210CE000EB1973491CF3
:100F40001B786D1E082902F808304FEA091908F1CC
:100F5000010801DA002DF0DC21688B0602D516E0CD
:100F6000A8F10108E04505DD02EB080313F8013C98
:100F7000302BF5D0B8F1000F09DD02EB080313F8B0
:100F8000013C2E2B03D1090701D4A8F10108002D43
:100F900005DD3E2102F808106D1E08F10108407CB5
:100FA000002E02F8080008F1010804DA2D2076422C
:100FB00002F8080002E02B2002F808000A214FF492
:100FC0007A70864208F101080BDB96FBF0F33033B0
:100FD00002F8083096FBF0F308F1010800FB1366F5
:100FE00001E0642E0CDB642096FBF0F3303302F852
:100FF000083096FBF0F308F1010800FB136601E0EE
:101000000A2E06DB96FBF1F0303002F8080008F1FA
:10101000010896FBF1F001FB1060303002F8080087
:10102000A16908F1010808EB050202EB0A00081AA1
:10103000A0612078C00602D42046FFF757F9216A44
:1010400008AE01EB0A00206204E0D4E9012116F8A1
:10105000010B9047BAF1010AF7D22078C00602D5F9
:101060002046FFF743F96E4609E016F8010B3E28CB
:101070000FD0D4E901219047206A401C2062B8F1CA
:101080000108F2D22046FFF747F909B00320BDE876
:10109000F08F206A2844206203E0D4E90121302047
:1010A00090476D1EEBD3F8E7E21A000002FCFFFF49
:1010B00010B5436913B1AFF3008001E0FFF74FF9BA
:1010C000012010BD127800F124010A7000224A703C
:1010D0000122EDE711684FF0FF32E9E710B54369EF
:1010E00013B1AFF3008001E0FFF7D0F9012010BD8C
:1010F000128800F1240182840022C2840122EDE7DB
:1011000011684FF0FF32E9E72DE9F04116460C4631
:10111000054600F043F8036893F80101012807D061
:10112000FF2C12D8185D80B101202C70BDE8F08131
:10113000D3F807013246214603F20713C7182846A1
:10114000BC46BDE8F041002360474FF0FF30EDE7BB
:101150007047754600F0EAF8AE460500694653460A
:1011600020F00700854618B020B5FFF771F8BDE8FC
:1011700020404FF000064FF000074FF000084FF0FE
:10118000000BAC46ACE8C009ACE8C009ACE8C0094B
:10119000ACE8C00921F007018D46704710B500F09A
:1011A00005F8001D10BD00BF711700000048704712
:1011B000300000202DE9F0411F4604460326016857
:1011C000072A01F4006004DB08B116A505E016A5A6
:1011D00003E008B115A500E015A521F0100020607E
:1011E000A069C01EA0610FB1401EA0612046FFF79C
:1011F0007DF84FB1D4E9012138469047206A401C60
:101200002062C01C206206E0206AFAE7D4E90121CE
:1012100015F8010B9047761EF8D22046FFF77CF8B0
:10122000BDE8F0814E414E006E616E00494E4600B1
:10123000696E66002DE9F047814616468AB035484A
:1012400078440DC88DE80D0032487844801C03AC0A
:101250000DC884E80D0041F69B300844372190FB0F
:10126000F1F290FBF1F5A5F1800501FB12041B3CA6
:1012700002D56442012000E00020DFF898A08046FB
:101280000027FA44AAF1BE0A0EE0E0070AD032466F
:10129000684607EB470101230AEB810101F0D3F90E
:1012A0008DE8070064107F1C002CEED1194F7F449D
:1012B000AE3F19E0E80715D007EB04100DF1180A4E
:1012C00090E80E008AE80E00C068F04201D198193B
:1012D00008903246012306A903A801F0B4F903AB34
:1012E00083E807006D10641C002DE3D14FF001036B
:1012F00032466946B8F1000F03A802D001F08EF91A
:1013000001E001F0A0F9C9E90001C9F808200AB01C
:10131000BDE8F087EC17000010B50446AFF300807D
:101320002046BDE81040FEF77EBF00000048704731
:10133000100000204FF0013C50F8042B51F8043B02
:101340009A4221D1A2EB0C03934313EACC1317D199
:1013500050F8042B51F8043B9A4215D1A2EB0C0330
:10136000934313EACC130BD150F8042B51F8043BF0
:101370009A4209D1A2EB0C03934313EACC13DBD0BE
:101380004FF00000704700BFD01A01BAB1FA81F1E6
:1013900001F0180122FA01F0CB40DBB2C0B2C01A52
:1013A000C1F120012CFA01F3D11A914311EAC311C2
:1013B000E6D17047FEE77047B0B5044600F00CF880
:1013C00005462248611C007818BF044400F004F868
:1013D000401BA042FAD3B0BD05480068704700BF6B
:1013E0001A48034900780A6810440860704700BF33
:1013F0009800002080B59148016841F0100101601B
:10140000032000F063F8002000F004F800F020F85A
:10141000002080BD70B50D4E04464FF47A713078CF
:10142000B1FBF0F087490968B1FBF0F000F0B4FAC5
:1014300001250F2C08D838B94FF0FF302146002283
:10144000002500F025F87460284670BD00000020DB
:1014500082B00D480422016841F001010160016879
:1014600001F0010101910199416841F08051416011
:10147000406800F08050009000980448016862F3D2
:101480001A61016002B07047181002400400014068
:1014900080B5144B1B68C3F3022CBCF1030E8CF017
:1014A00007034FF0FF3C38BF4FF0000E042B28BF5E
:1014B00004230CFA03F399430CFA0EF301FA0EF12C
:1014C0009A431143BDE8804000F07EBA05494FF6CB
:1014D000FF030A681A4060F30A22034810430860B9
:1014E000704700BF0CED00E00000FA052DE9F8435D
:1014F0000D4652490446086800F00700A84209D288
:10150000086820F0070028430860086800F007001A
:10151000A84253D120685A4F8946810711D5410707
:1015200042BF396841F4E0613960010742BF396860
:1015300041F4605139603968A26821F0F00111432B
:101540003960C00733D1D9F8000000F00700A84285
:101550000CD9D9F8000020F007002843C9F8000092
:10156000D9F8000000F00700A84227D12068410701
:1015700005D53968E26821F4E0611143396000075C
:1015800006D53868216920F4605040EAC10038600F
:1015900000F05AF839682A4A0024C1F30311515C5B
:1015A000C840FB4908600020FFF734FF07E060688F
:1015B000012808D157F8041C89030DD401242046C2
:1015C00001B0BDE8F08357F8041C022802D189015C
:1015D000F4D501E08907F1D5396821F0030108430A
:1015E0003860FFF7F9FE0646606841F28838012846
:1015F0000CD0022815D1386800F00C000828A2D0C1
:10160000FFF7EAFE801B4045F5D914E0386800F08A
:101610000C00042897D0FFF7DFFE801B4045F5D96A
:1016200009E0386810F00C0F3FF48DAFFFF7D4FEDF
:10163000801B4045F5D90324C1E700BF00200240CC
:10164000482A00080800002010B50D4C0D482268FB
:1016500002F00C03082B18BF10BDC2F383430AA18C
:10166000CB5CD10302D40D48584310BD21680AA2B7
:101670005843C1F34041515CB0FBF1F010BD00BFD5
:101680000410024000127A0002030405060708094C
:101690000A0B0C0D0E0F10100102000000093D0096
:1016A0002DE9FC4104460078E14EC00749D070683E
:1016B00000F00C00042817D0706800F00C00082817
:1016C00002D17068C0030FD4606898B1B0F5803F54
:1016D00006D03168B0F5A02F20D141F480203060D1
:1016E000306840F480301FE03068800329D560689E
:1016F00038BB07E1306820F480303060306820F477
:1017000080203060FFF768FE05463068800318D5FA
:10171000FFF762FE401B6428F7D9E2E021F4803035
:101720003060306820F480203060FFF755FE0546B9
:101730003068800305D4FFF74FFE401B6428F7D9BB
:10174000CFE0207880072BD5706810F00C0F07D001
:10175000706800F00C00082809D17068C00306D436
:101760003068800715D52069012812D0CAE02169A8
:10177000864800297CD001210160FFF72DFE054637
:101780003068800705D4FFF727FE401B0228F7D9F1
:10179000A7E03068616920F0F80040EAC1003060DD
:1017A000207800072ED5A06978B178480121C0F8CB
:1017B0008014FFF711FE0546706A800715D4FFF705
:1017C0000BFE401B0228F7D98BE070480021C0F8BF
:1017D0008014FFF701FE0546706A800712D5FFF7F7
:1017E000FBFD401B0228F7D97BE069484FF4FA5112
:1017F0000068B0FBF1F0019000BF0198411E002885
:101800000191F9D12078400774D5F069C0000BD45C
:10181000F0694FF0010840F08050F061F06900F08D
:1018200080500090009801E04FF00008594F386850
:10183000C0050FD4386840F480703860FFF7CCFDE5
:1018400005463868C00505D4FFF7C6FD401B64286F
:10185000F7D946E0E068D0B1012805D0316A052803
:101860002BD141F004003062306A40F001002AE0E0
:1018700000210160FFF7B0FD0546306880077FF565
:101880008FAFFFF7A9FD401B0228F6D929E0306A87
:1018900020F001003062306A20F004003062FFF76F
:1018A0009BFD054641F28837306A80071BD5FFF75C
:1018B00093FD401BB842F7D913E021F001003062DC
:1018C000306A20F004003062FFF786FD054641F2E1
:1018D0008837306A800706D4FFF77EFD401BB84288
:1018E000F7D903204FE0B8F1000F1EBFF06920F0D8
:1018F0008050F061E769002F44D0706800F00C0060
:10190000082801D101203EE02049002088460866D1
:10191000FFF762FD0546022F0AD147463068800175
:1019200010D5FFF759FD411B03200229F6D92AE003
:101930003068800126D5FFF74FFD411B03200329A6
:10194000F6D320E0206AB0F5803F05D17168A26827
:1019500021F40031114371607168626A104321F40F
:1019600074110843706001203866FFF735FD0446A6
:101970003068800106D4FFF72FFD011B03200229E8
:10198000F6D900E0002002B0BDE8F081000042423C
:101990000800002000700040411E0020B0EB116FD5
:1019A0001CBF01207047044AF023516003490B70AB
:1019B000072190601160704710E000E023ED00E027
:1019C000FEE7FEE77047000010B5064A00F00F037F
:1019D0000028054C02444FEA0110B8BF1A191070D4
:1019E00010BD00BF00E400E014ED00E07047704758
:1019F000FFF7F6BC0E480F4A016841F00101016093
:101A0000416811400C4A4160016811400160016861
:101A100021F480210160416821F4FE0141604FF40E
:101A20001F01816005484FF000610160704700BFF1
:101A3000001002400000FFF8FFFFF6FE08ED00E096
:101A4000FEE7B0B590B006AC2421201DFEF724FCC3
:101A5000002510200D950B9001200A900220069081
:101A60002046FFF71DFEA020CDE904550021CDE959
:101A700002500F20019001A8FFF738FD10B0B0BD53
:101A80004279017B120703D40901017300F035B8D4
:101A90000A070AD5C278012302F0070203FA02FC02
:101AA0008368DA6842EA0C02DA604A070AD582786B
:101AB0000123C2F3C20203FA02FC8368DA6842EA35
:101AC0000C02DA608A070AD58278012302F0070245
:101AD00003FA02FC8368DA6842EA0C02DA60C9079A
:101AE00008BF704741780122C1F3C201806802FA41
:101AF00001F1C2681143C160704790F90C20D1B266
:101B0000B2F1FF3F0ADC4279012302F0070203FA37
:101B100002FC8368DA6842EA0C02DA604A060AD5F7
:101B200002790123C2F3C20203FA02FC8368DA6875
:101B300042EA0C02DA608A060AD50279012302F031
:101B4000070203FA02FC8368DA6842EA0C02DA60F0
:101B5000C90658BF7047C1780122C1F3C20180682D
:101B600002FA01F1C2681143C160704770B50546C1
:101B70000C46501C05D0402040EAC20611480670B1
:101B800001E010480678284600F05EF9F1B22846D8
:101B900000F07FF9284600F04EF8002604E0A15D31
:101BA000284600F076F90136082EF8D1054801786C
:101BB00008310170C8B20821403890FBF1F00138BB
:101BC000C0B270BD0C00002070B514460D4606462C
:101BD00000F031F805E015F8011B304600F059F926
:101BE000013C002CF7D170BD80B51C23082A28BF0A
:101BF0000431D1F800C04FF0010E900003EA8203D7
:101C0000082A38BFC3B20EFA03F2581C2CEA0202AB
:101C10000EFA00F00A600A6810439A1C08600EFA77
:101C200002F208689043DA1C08600EFA02F20868B3
:101C30009043086080BD01788068012201F00701AF
:101C400002FA01F1C2681143C160704710B5044641
:101C500000F0FAF82046022100F01BF90220BDE84E
:101C60001040FFF7A9BB00002DE9F04190F8058076
:101C70001D4616460F46044600F0E6F845EA4600C3
:101C8000069900F10C056FF0070000EBC70040EA71
:101C9000810008F0080140EA410040F02006607928
:101CA00000070CD42079012100F0070001FA00F0B0
:101CB000A168CA681043C860204600F017F8F1B266
:101CC000204600F0E6F8084E0520B0472046294699
:101CD00000F0DFF80520B047204600F059F8052055
:101CE0003146BDE8F0410847B9130008B0B5417866
:101CF0004FF0010C01F007010CFA01F28168CB688A
:101D00001A43CA604278CB6802F007020CFA02F26A
:101D100023EA0202CA60427913070BD402F00702D9
:101D20000CFA02F30279033002F007050CFA05F50C
:101D30002B431CE0847802F0070290F801E00CFAD3
:101D400002F3C278043004F007050CFA05F52B43C2
:101D5000CEF3C2050CFA05F52B43C4F3C2050CFA09
:101D600005F52B4302F007050CFA05F52B43007827
:101D70000125C0F3C200C2F3C20205FA02F205FA5D
:101D800000F01A431043CA6822EA0000C860B0BDE0
:101D900010B5044600F058F82046012100F079F80B
:101DA0000220BDE81040FFF707BB000082B0BCB5C1
:101DB000084D0446CDE9062306AA01922846FEF7FF
:101DC00059FAC2B220462946FFF7FEFEBDE8BC40E4
:101DD00002B0704770000020B0B50C460546FFF712
:101DE0002AFF28462146BDE8B04000F052B82DE950
:101DF000F0471C4691468846824600F025F8182791
:101E00000025B8F1000F08BF1C27E8B2484528BFDD
:101E1000BDE8F0875046394600F03BF8012004E069
:101E20000A20FFF7C9FA06F10A0006B2A642F7DB5C
:101E30000135EAE713460A460021FFF7D8BF1346EB
:101E40000A460121FFF7D3BF01788068012201F023
:101E5000070102FA01F1C26822EA0101C16070477C
:101E600010B50446FFF749FE2046BDE81040FFF7D5
:101E700007BE70B514460D460646FFF7E5FF04EBB6
:101E8000851040F08000C1B23046BDE87040AFF32D
:101E9000008010B501730446417901F01000090774
:101EA00015D450B120780121C0F3C20001FA00F02E
:101EB000A168CA6822EA0000C8602046FFF71DFE3C
:101EC0002046FFF713FF2046FFF7DAFD0EE050B182
:101ED00020780121C0F3C20001FA00F0A168CA68AD
:101EE00022EA0000C8602046FFF7BAFF2046BDE89E
:101EF0001040FFF7FBBE00002DE9F84F04460B2011
:101F0000994616460D46FFF757FAA5F14101DDF84F
:101F100030A0DDE90A7B04290AD82F4D0420DFE830
:101F200001F01303080C100005F5806508200BE094
:101F30000EE005F50065102006E005F5406520205F
:101F400002E005F58055402024490A6810430860E6
:101F5000DFF88C8029463246C04729464A46C047AA
:101F600029463A46C04729465A46C047294652465E
:101F7000C047DDF834B029465A46C047A56006F090
:101F80000700617901F0E001084407F00701607182
:101F900009F00700277941EAC0002178E3786278E8
:101FA00007F0C00703F0C70301F0F80138442071BF
:101FB0000B9800F0070043EAC000E0700AF0070049
:101FC000084402F0F80120700BF00700084460702C
:101FD000204601B0BDE8F08F000801401810024013
:101FE000E91B00082DE9F04190B0FFF703FAFFF775
:101FF00028FD02200321042205230CACCDE9003288
:10200000CDE902102046412107220623FFF774FF85
:10201000002002210122002300902046FFF724FE29
:102020003149334A40F61160344D0B900A912F49E3
:102030000991CDE907122F494FF0FF32CDE9050193
:102040002D480AA904902046A847804608A92046A2
:102050004FF0FF32A847064606A920464FF0FF3250
:10206000A847074604A920464FF0FF32A847054677
:102070002046FFF78DFE2046FFF7E8FD20460021B1
:102080000022FFF7F6FE2046FFF7D5FD2046294641
:10209000FFF7FFFE1AA12046FFF788FE20462946DB
:1020A000FFF79AFE204601210022FFF7E2FE16A16B
:1020B000204642462B46CDE90067FFF777FE4FF4F6
:1020C0009670FFF779F9204606216422FFF7B7FEE4
:1020D000C820FFF771F9204606216422FFF7AAFE07
:1020E000C820FFF769F9EEE7000E15170E0404008B
:1020F0000A0A1F1F04041F00000A0A006D1B0008C3
:102100002048656C6C6F2000646566696E656420AC
:1021100063686172733A202563202563202563205C
:10212000256300005FEA400C08BF91F0000F4FEA02
:102130008C234FEAC12243EA51514FEA1C5018BF89
:1021400000F5F0404FEA300018BF41F000415FEA6F
:102150006C5C00F02980BCF1FF3F08BF40F080407C
:102160007047130C06BF12044FF0100C4FF0000C18
:10217000130E04BF12020CF1080C130F04BF12015E
:102180000CF1040C930F04BF92000CF1020CD30F5E
:1021900004BF52000CF1010C11464FF00002A0F1F7
:1021A0001F00A0EB0C00704711F0004F08BF7047F4
:1021B00031F000413FF4D5AF0B0C06BF09044FF0DE
:1021C000100C4FF0000C0B0E04BF09020CF1080CB0
:1021D0000B0F04BF09010CF1040C8B0F04BF890025
:1021E0000CF1020CCB0F04BF49000CF1010CCCF137
:1021F000200322FA03F341EA030102FA0CF2A0EBF6
:102200000C0000F10100704723F07F4720F07F4C65
:1022100080EA030000F00040ACEB070303F57C53B9
:1022200003F1FF032DE9804909B44FEA144324EA7E
:1022300003484FEA154B25EA0B4E0FF2042606EB36
:1022400013273E7803FB0667C7F5000707FB06F672
:102250004FEAD64606F102064FEA543707FB066CF2
:10226000CCF1005C4FEA1C472CEA074C0CFB06F54E
:1022700007FB06F404EB15464FEA961649085FEA99
:10228000320234BF00204FF000404FEAD13706FB46
:1022900007FC4FEA1C4C0CFB0BF7D21B03FB0CF7A3
:1022A00061EB07010CFB0EF7B0EB074072EB174236
:1022B0000CFB08F734BFA2EB0742B2EB074261EB1D
:1022C00017414FEA0C444FEA910706FB07FC4FEA1F
:1022D0001C4C0CFB0BF7B0EBC74072EB573203FB07
:1022E0000CF734BFA2EBC742B2EBC74261EB5731E8
:1022F0000CFB0EF7B0EBC70072EB57720CFB08F744
:1023000034BFA2EBC702B2EBC70261EB57714FEAD1
:10231000816141EA92114FEA826242EA90124FEAE9
:10232000806004EBCC04039F4FEAD13706FB07FC27
:102330004FEA1C4C0CFB0BF7D21B03FB0CF761EBB9
:1023400007010CFB0EF7B0EB074072EB17420CFBDA
:1023500008F734BFA2EB0742B2EB074261EB17412B
:102360004FEA8C5504EB9C244FEA910706FB07FCCF
:102370004FEA1C4C0CFB0BF7B0EBC74072EB57322B
:1023800003FB0CF734BFA2EBC742B2EBC74261EBD1
:1023900057310CFB0EF7B0EBC70072EB57720CFB1A
:1023A00008F734BFA2EBC702B2EBC70261EB57716B
:1023B0004FEA816141EA92114FEA826242EA901249
:1023C0004FEA806015EB4C2544F100044FEAD13709
:1023D00006FB07FC4FEA1C4C0CFB0BF7D21B03FB64
:1023E0000CF761EB07010CFB0EF7B0EB074072EB4B
:1023F00017420CFB08F734BFA2EB0742B2EB0742CF
:1024000061EB17414FEA813141EA92414FEA823252
:1024100042EA90424FEA80304FEA0C7615EB1C15E9
:1024200044F1000448EA03434EEA0B484FF0000E23
:10243000B2EB080C71EB030724BF624639464EEB42
:102440000E0E4FF0000B0018524149414BEB0B0BA5
:10245000B2EB080C71EB03077BF1000B24BF624663
:1024600039464EEB0E0E4FF0000B00185241494119
:102470004BEB0B0BB2EB080C71EB03077BF1000B82
:1024800024BF624639464EEB0E0E51EA020718BFD2
:1024900046F0010616EB0E7655F1000254F10001EC
:1024A00003D5BDE88901BDE80088BDE88901BDE824
:1024B0000048B619524141EB0101A3F101037047F5
:1024C00080807F7E7D7C7B7A797877767675747371
:1024D000727171706F6E6E6D6C6C6B6A6A69686830
:1024E000676666656464636362616160605F5F5EC6
:1024F0005E5D5D5C5C5B5B5A5A595958585757563C
:1025000056555555545453535252525151505050A0
:102510004F4F4F4E4E4D4D4D4C4C4C4B4B4B4A4AF2
:102520004A49494948484847474747464646454536
:10253000454444444443434343424242424141416F
:102540009C46002B30D477002BD04FEA37071CB5C0
:1025500003B44FF010004FF01001BAF1000F06D095
:10256000BCF1000FDCBF40F0080040F008014FF064
:1025700000000FBCBDE810400BF1010BBBF1010FD7
:1025800008BF5FEA170722BF12F1010211F1010132
:102590004FF0004143F1000300F0004043EA000027
:1025A0007047F9D35708D0E746EA06464FEA164681
:1025B00013F1400F1FDD13F1200FDFBF16430A4652
:1025C000002120335B42BED0C3F1200746EA064615
:1025D0004FEA164602FA07F746EA070622FA03F21E
:1025E000C3F1200701FA07F742EA070221FA03F1D3
:1025F0004FF00003A7E746EA020646EA06464FEA1E
:10260000164646EA0106BCBF46EA0646360C4FF0BF
:1026100000034FF000024FF0000194E72DE9804CD9
:1026200070B49A46934691E8380007C831EA400CE6
:1026300048BF34EA430C03D5FFF7E6FDFFF780FF00
:10264000F0BCBDE8008C2DE9804C70B49A469346EE
:1026500091E8380007C810F0804F08BF13F0804F92
:1026600003D100F005F8FFF76BFFF0BCBDE8008C6C
:1026700020F07F4723F07F4C80EA030000F0004009
:1026800007EB0C03A3F57C53A3F1FE0392F0000FBC
:1026900000F0B38095F0000F00F077802DE901493C
:1026A0004FEA114021EA00484FEA144624EA06475F
:1026B00000FB06FC08FB06F607FB08F818EB0648CB
:1026C0004CEB164C00FB07F718EB07484CEB174098
:1026D0004FEA124B22EA0B4E4FEA154625EA06470F
:1026E0000BFB06FC0EFB06F607FB0EFE1EEB064E72
:1026F0004CEB164C0BFB07F71EEB074E4CEB174B46
:1027000018EB0B0840F1000018EB0E0B58EB00081B
:1027100040F100008F1A4FF000014FF000063CBF5F
:10272000C943661B14BFB5EB040C00213CBFC94371
:10273000F61B4FEA174427EA04454FEA1C472CEAE8
:10274000074C04FB076205FB07F70CFB05F616EBCD
:10275000074642EB174204FB0CFC16EB0C4642EB1F
:102760001C421BEB060658EB020241414EEA8E0E5C
:1027700046EA9E0601D5BDE80189B619524141EBF2
:102780000101A3F10103BDE801894FEA144524EAE0
:1027900005464FEA114721EA074C05FB07F406FB03
:1027A00007F70CFB06F111EB074144EB174405FB5F
:1027B0000CFC11EB0C4144EB1C444FEA124722EA9B
:1027C000074C05FB07F206FB07F70CFB06F616EBBA
:1027D000074642EB174205FB0CFC16EB0C4642EB9E
:1027E0001C456A1854F1000148BF7047B6195241A0
:1027F00041EB0101A3F10103704795F0000F37D0C1
:102800004FEA114221EA02464FEA144724EA074CF4
:1028100002FB07F106FB07F70CFB06F414EB074479
:1028200041EB174102FB0CFC14EB0C4441EB1C4147
:102830004FEA154725EA074C02FB07F506FB07F7A9
:102840000CFB06F616EB074645EB174502FB0CFCA6
:1028500016EB0C4645EB1C42121951F1000148BF22
:102860007047B619524141EB0101A3F101037047D2
:102870004FEA144524EA05464FEA114721EA074C7E
:1028800005FB07F106FB07F70CFB06F212EB07420C
:1028900041EB174105FB0CFC12EB0C4251EB1C41C8
:1028A0004FF0000648BF7047921841EB0101A3F1B9
:1028B00001037047490050EAC12018BF04204A0DA7
:1028C00018BF40F0010040F2FF72B2EB515F08BF49
:1028D00040F00200012808BF0520704730380A2860
:1028E00001D20120704700207047000010B5002978
:1028F0000AD00878002807D005487844FEF71AFD6A
:10290000002801D0002010BD0248784410BD00000E
:102910007E0100007601000010B500290AD0087879
:10292000002807D005487844FEF704FD002801D0B0
:10293000002010BD0248784410BD00006E01000068
:1029400066010000FEF700B9FEF734BA000000008F
:1029500000000000303132333435363738394142E7
:1029600043444546403058003031323334353637F1
:10297000383961626364656640307800040000089D
:1029800000000000000000020001000010303132A1
:102990003334353637383961626364656678700080
:1029A0003031323334353637383941424344454685
:1029B0005850000002400000000000A0000000008D
:1029C00005400000000000C8000000000C400000AE
:1029D0000000409C00000000194000000020BCBE28
:1029E0000000000034400000BFC91B8E000000043E
:1029F000B5400000504BCFD06607E2CF0100000089
:102A00006C4100003E8251AADFEEA73401000000B5
:102A1000D9420000DCB5A0E23A301F97FFFFFFFF6C
:102A2000B4450000FD25A0C8E9A3C14FFFFFFFFF8B
:102A3000FF3F00000000008000000000FF3F00009A
:102A40000000008000000000000000000000000006
:102A50000102030406070809A82B00080000002053
:102A60001000000028010008B82B0008100000200A
:102A700090060000440100081C0000004300000014
:102A8000F8FFFFFF0C0000000E0000000F00000028
:102A90002E0000001001000043000000F8FFFFFFBF
:102AA0000040404040404040404041414141414061
:102AB0004040404040404040404040404040404016
:102AC00040050202020202020202020202020202A5
:102AD00002202020202020202020200202020202AA
:102AE0000202909090909090101010101010101002
:102AF000101010101010101010101010020202020E
:102B00000202888888888888080808080808080851
:102B1000080808080808080808080808020202024D
:102B20004000000000000000000000000000000065
:102B30000000000000000000000000000000000095
:102B40000000000000000000000000000000000085
:102B50000000000000000000000000000000000075
:102B60000000000000000000000000000000000065
:102B70000000000000000000000000000000000055
:102B80000000000000000000000000000000000045
:102B90000000000000000000000000000000000035
:102BA0000000000000000000010000001000000014
:082BB00000A24A0440000000ED
:04000005080000ED02
:00000001FF
